{"abi":[{"type":"function","name":"verifyJsonApi","inputs":[{"name":"_proof","type":"tuple","internalType":"struct IJsonApi.Proof","components":[{"name":"merkleProof","type":"bytes32[]","internalType":"bytes32[]"},{"name":"data","type":"tuple","internalType":"struct IJsonApi.Response","components":[{"name":"attestationType","type":"bytes32","internalType":"bytes32"},{"name":"sourceId","type":"bytes32","internalType":"bytes32"},{"name":"votingRound","type":"uint64","internalType":"uint64"},{"name":"lowestUsedTimestamp","type":"uint64","internalType":"uint64"},{"name":"requestBody","type":"tuple","internalType":"struct IJsonApi.RequestBody","components":[{"name":"url","type":"string","internalType":"string"},{"name":"postprocessJq","type":"string","internalType":"string"},{"name":"abi_signature","type":"string","internalType":"string"}]},{"name":"responseBody","type":"tuple","internalType":"struct IJsonApi.ResponseBody","components":[{"name":"abi_encoded_data","type":"bytes","internalType":"bytes"}]}]}]}],"outputs":[{"name":"_proved","type":"bool","internalType":"bool"}],"stateMutability":"pure"}],"bytecode":{"object":"0x608060405234801561001057600080fd5b50610104806100206000396000f3fe6080604052348015600f57600080fd5b506004361060285760003560e01c8063d0f18f8514602d575b600080fd5b603c60383660046070565b6050565b604051901515815260200160405180910390f35b6000664a736f6e41706960c81b6068602084018460af565b351492915050565b600060208284031215608157600080fd5b813567ffffffffffffffff811115609757600080fd5b82016040818503121560a857600080fd5b9392505050565b6000823560be1983360301811260c457600080fd5b919091019291505056fea2646970667358221220f44a5221dda444e7ef1e8dfab8abc979d70fcdf31de50e27ccec7ab1fc28d84064736f6c63430008140033","linkReferences":{}},"methodIdentifiers":{"verifyJsonApi((bytes32[],(bytes32,bytes32,uint64,uint64,(string,string,string),(bytes))))":"d0f18f85"},"id":87}