{"abi":[{"type":"constructor","inputs":[],"stateMutability":"nonpayable"},{"type":"function","name":"flrUsdId","inputs":[],"outputs":[{"name":"","type":"bytes21","internalType":"bytes21"}],"stateMutability":"view"},{"type":"function","name":"getAvailablePriceFeedNames","inputs":[],"outputs":[{"name":"feedNames","type":"string[]","internalType":"string[]"}],"stateMutability":"view"},{"type":"function","name":"getAvailablePriceFeeds","inputs":[],"outputs":[{"name":"","type":"bytes21[]","internalType":"bytes21[]"}],"stateMutability":"view"},{"type":"function","name":"getFeedPrice","inputs":[{"name":"feedId","type":"bytes21","internalType":"bytes21"}],"outputs":[{"name":"","type":"uint256","internalType":"uint256"},{"name":"","type":"int8","internalType":"int8"},{"name":"","type":"uint64","internalType":"uint64"}],"stateMutability":"view"},{"type":"function","name":"getFeedPriceByName","inputs":[{"name":"feedName","type":"string","internalType":"string"}],"outputs":[{"name":"","type":"uint256","internalType":"uint256"},{"name":"","type":"int8","internalType":"int8"},{"name":"","type":"uint64","internalType":"uint64"}],"stateMutability":"view"},{"type":"function","name":"getFlrUsdPrice","inputs":[],"outputs":[{"name":"","type":"uint256","internalType":"uint256"},{"name":"","type":"int8","internalType":"int8"},{"name":"","type":"uint64","internalType":"uint64"}],"stateMutability":"view"}],"bytecode":{"object":"0x6080604052600280546001600160a81b031916665193148bd554d1606a1b17905534801561002c57600080fd5b50610035610082565b600080546001600160a01b0319166001600160a01b039290921691909117905561005d61014b565b600180546001600160a01b0319166001600160a01b03929092169190911790556101e1565b600073ad67fe66660fb8dfe9d6b1b4240d8650e30f60196001600160a01b031663159354a26040516020016100d190602080825260069082015265233a39b7ab1960d11b604082015260600190565b604051602081830303815290604052805190602001206040518263ffffffff1660e01b815260040161010591815260200190565b602060405180830381865afa158015610122573d6000803e3d6000fd5b505050506040513d601f19601f8201168201806040525081019061014691906101b1565b905090565b600073ad67fe66660fb8dfe9d6b1b4240d8650e30f60196001600160a01b031663159354a26040516020016100d19060208082526013908201527f4674736f466565644964436f6e76657274657200000000000000000000000000604082015260600190565b6000602082840312156101c357600080fd5b81516001600160a01b03811681146101da57600080fd5b9392505050565b610aa8806101f06000396000f3fe608060405234801561001057600080fd5b50600436106100625760003560e01c806308200a7c14610067578063d75497621461009c578063d77a18eb146100af578063d790bd82146100c4578063ecd426f4146100d7578063f8d2e7ba146100fd575b600080fd5b61006f610112565b6040805193845260009290920b602084015267ffffffffffffffff16908201526060015b60405180910390f35b61006f6100aa3660046106ab565b6101a8565b6100b76102b5565b6040516100939190610786565b61006f6100d2366004610801565b61039d565b6002546100e49060581b81565b6040516001600160581b03199091168152602001610093565b61010561042c565b6040516100939190610825565b600080546002546040516349f4fc0360e11b815260589190911b6001600160581b0319166004820152829182918291829182916001600160a01b0316906393e9f80690602401606060405180830381865afa158015610175573d6000803e3d6000fd5b505050506040513d601f19601f820116820180604052508101906101999190610873565b91989097509095509350505050565b60018054604051633e2dea0960e21b81526000928392839283926001600160a01b039092169163f8b7a824916101e3919089906004016108c9565b602060405180830381865afa158015610200573d6000803e3d6000fd5b505050506040513d601f19601f8201168201806040525081019061022491906108ed565b600080546040516349f4fc0360e11b81526001600160581b0319841660048201529293509091829182916001600160a01b03909116906393e9f80690602401606060405180830381865afa158015610280573d6000803e3d6000fd5b505050506040513d601f19601f820116820180604052508101906102a49190610873565b919a90995090975095505050505050565b606060006102c161042c565b9050805167ffffffffffffffff8111156102dd576102dd61063b565b60405190808252806020026020018201604052801561031057816020015b60608152602001906001900390816102fb5790505b50915060005b8151811015610398578181815181106103315761033161090a565b602002602001015160405160200161035991906001600160581b031991909116815260150190565b60405160208183030381529060405283828151811061037a5761037a61090a565b6020026020010181905250808061039090610920565b915050610316565b505090565b600080546040516349f4fc0360e11b81526001600160581b031984166004820152829182918291829182916001600160a01b0316906393e9f80690602401606060405180830381865afa1580156103f8573d6000803e3d6000fd5b505050506040513d601f19601f8201168201806040525081019061041c9190610873565b9199909850909650945050505050565b6060600061043861055b565b90506000816001600160a01b03166331038aad6040518163ffffffff1660e01b8152600401600060405180830381865afa15801561047a573d6000803e3d6000fd5b505050506040513d6000823e601f3d908101601f191682016040526104a29190810190610947565b90506000815167ffffffffffffffff8111156104c0576104c061063b565b6040519080825280602002602001820160405280156104e9578160200160208202803683370190505b50905060005b82518110156105535782818151811061050a5761050a61090a565b6020026020010151600001518282815181106105285761052861090a565b6001600160581b0319909216602092830291909101909101528061054b81610920565b9150506104ef565b509392505050565b600073ad67fe66660fb8dfe9d6b1b4240d8650e30f60196001600160a01b031663159354a26040516020016105c19060208082526018908201527f4661737455706461746573436f6e66696775726174696f6e0000000000000000604082015260600190565b604051602081830303815290604052805190602001206040518263ffffffff1660e01b81526004016105f591815260200190565b602060405180830381865afa158015610612573d6000803e3d6000fd5b505050506040513d601f19601f820116820180604052508101906106369190610a49565b905090565b634e487b7160e01b600052604160045260246000fd5b6040516060810167ffffffffffffffff811182821017156106745761067461063b565b60405290565b604051601f8201601f1916810167ffffffffffffffff811182821017156106a3576106a361063b565b604052919050565b600060208083850312156106be57600080fd5b823567ffffffffffffffff808211156106d657600080fd5b818501915085601f8301126106ea57600080fd5b8135818111156106fc576106fc61063b565b61070e601f8201601f1916850161067a565b9150808252868482850101111561072457600080fd5b8084840185840137600090820190930192909252509392505050565b6000815180845260005b818110156107665760208185018101518683018201520161074a565b506000602082860101526020601f19601f83011685010191505092915050565b6000602080830181845280855180835260408601915060408160051b870101925083870160005b828110156107db57603f198886030184526107c9858351610740565b945092850192908501906001016107ad565b5092979650505050505050565b6001600160581b0319811681146107fe57600080fd5b50565b60006020828403121561081357600080fd5b813561081e816107e8565b9392505050565b6020808252825182820181905260009190848201906040850190845b818110156108675783516001600160581b03191683529284019291840191600101610841565b50909695505050505050565b60008060006060848603121561088857600080fd5b8351925060208401518060000b81146108a057600080fd5b604085015190925067ffffffffffffffff811681146108be57600080fd5b809150509250925092565b60ff831681526040602082015260006108e56040830184610740565b949350505050565b6000602082840312156108ff57600080fd5b815161081e816107e8565b634e487b7160e01b600052603260045260246000fd5b60006001820161094057634e487b7160e01b600052601160045260246000fd5b5060010190565b6000602080838503121561095a57600080fd5b825167ffffffffffffffff8082111561097257600080fd5b818501915085601f83011261098657600080fd5b8151818111156109985761099861063b565b6109a6848260051b0161067a565b818152848101925060609182028401850191888311156109c557600080fd5b938501935b82851015610a3d5780858a0312156109e25760008081fd5b6109ea610651565b85516109f5816107e8565b81528587015163ffffffff81168114610a0e5760008081fd5b8188015260408681015162ffffff81168114610a2a5760008081fd5b90820152845293840193928501926109ca565b50979650505050505050565b600060208284031215610a5b57600080fd5b81516001600160a01b038116811461081e57600080fdfea26469706673582212200b16590d2c14aacf7f05bd4a1b8e895a2b227f831c64ee67c9a56586a984bed764736f6c63430008140033","linkReferences":{}},"methodIdentifiers":{"flrUsdId()":"ecd426f4","getAvailablePriceFeedNames()":"d77a18eb","getAvailablePriceFeeds()":"f8d2e7ba","getFeedPrice(bytes21)":"d790bd82","getFeedPriceByName(string)":"d7549762","getFlrUsdPrice()":"08200a7c"},"id":85}