{"abi":[{"type":"constructor","inputs":[],"stateMutability":"nonpayable"},{"type":"function","name":"feedIds","inputs":[{"name":"","type":"uint256","internalType":"uint256"}],"outputs":[{"name":"","type":"bytes21","internalType":"bytes21"}],"stateMutability":"view"},{"type":"function","name":"getFeedValueById","inputs":[{"name":"feedId","type":"bytes21","internalType":"bytes21"}],"outputs":[{"name":"feedValue","type":"uint256","internalType":"uint256"},{"name":"decimals","type":"int8","internalType":"int8"},{"name":"timestamp","type":"uint64","internalType":"uint64"}],"stateMutability":"view"},{"type":"function","name":"getFeedValueByName","inputs":[{"name":"feedName","type":"string","internalType":"string"}],"outputs":[{"name":"feedValue","type":"uint256","internalType":"uint256"},{"name":"decimals","type":"int8","internalType":"int8"},{"name":"timestamp","type":"uint64","internalType":"uint64"}],"stateMutability":"view"},{"type":"function","name":"getFtsoV2CurrentFeedValues","inputs":[],"outputs":[{"name":"_feedValues","type":"uint256[]","internalType":"uint256[]"},{"name":"_decimals","type":"int8[]","internalType":"int8[]"},{"name":"_timestamp","type":"uint64","internalType":"uint64"}],"stateMutability":"view"}],"bytecode":{"object":"0x61010060405266509510cbd554d160c21b6080908152675554d1150bd554d160ba1b60a052665155120bd554d160c21b60c0526654d3d30bd554d160c21b60e05261004e906001906004610152565b5034801561005b57600080fd5b50610064610089565b600080546001600160a01b0319166001600160a01b03929092169190911790556101f7565b600073ad67fe66660fb8dfe9d6b1b4240d8650e30f60196001600160a01b031663159354a26040516020016100d890602080825260069082015265233a39b7ab1960d11b604082015260600190565b604051602081830303815290604052805190602001206040518263ffffffff1660e01b815260040161010c91815260200190565b602060405180830381865afa158015610129573d6000803e3d6000fd5b505050506040513d601f19601f8201168201806040525081019061014d91906101c7565b905090565b8280548282559060005260206000209081019282156101a2579160200282015b828111156101a257825182546001600160a81b03191660589190911c178255602090920191600190910190610172565b506101ae9291506101b2565b5090565b5b808211156101ae57600081556001016101b3565b6000602082840312156101d957600080fd5b81516001600160a01b03811681146101f057600080fd5b9392505050565b610a81806102066000396000f3fe608060405234801561001057600080fd5b506004361061004c5760003560e01c80634f1babd7146100515780635099749114610091578063b7f433d1146100a4578063f601bc8b146100d0575b600080fd5b61006461005f36600461066e565b6100e7565b6040805193845260009290920b602084015267ffffffffffffffff16908201526060015b60405180910390f35b61006461009f3660046106e6565b61035c565b6100b76100b236600461077b565b6105c1565b6040516001600160581b03199091168152602001610088565b6100d86105e5565b60405161008893929190610794565b60008054604051634c37574560e01b8152829182918291829182916001600160a01b031690634c375745906101219060019060040161082a565b600060405180830381865afa15801561013e573d6000803e3d6000fd5b505050506040513d6000823e601f3d908101601f19168201604052610166919081019061093a565b925092509250600160008154811061018057610180610a06565b60009182526020909120015460581b6001600160581b0319908116908816036101e857826000815181106101b6576101b6610a06565b6020026020010151826000815181106101d1576101d1610a06565b602002602001015182955095509550505050610355565b600180815481106101fb576101fb610a06565b60009182526020909120015460581b6001600160581b03199081169088160361024c578260018151811061023157610231610a06565b6020026020010151826001815181106101d1576101d1610a06565b600160028154811061026057610260610a06565b60009182526020909120015460581b6001600160581b0319908116908816036102b1578260028151811061029657610296610a06565b6020026020010151826002815181106101d1576101d1610a06565b60016003815481106102c5576102c5610a06565b60009182526020909120015460581b6001600160581b03199081169088160361031657826003815181106102fb576102fb610a06565b6020026020010151826003815181106101d1576101d1610a06565b60405162461bcd60e51b815260206004820152600f60248201526e125b9d985b1a590819995959081251608a1b60448201526064015b60405180910390fd5b9193909250565b60008054604051634c37574560e01b8152829182918291829182916001600160a01b031690634c375745906103969060019060040161082a565b600060405180830381865afa1580156103b3573d6000803e3d6000fd5b505050506040513d6000823e601f3d908101601f191682016040526103db919081019061093a565b9250925092506040516020016103fa906242544360e81b815260030190565b60405160208183030381529060405280519060200120876040516020016104219190610a1c565b604051602081830303815290604052805190602001200361044f57826000815181106101b6576101b6610a06565b604051631554d11560e21b602082015260240160405160208183030381529060405280519060200120876040516020016104899190610a1c565b60405160208183030381529060405280519060200120036104b7578260018151811061023157610231610a06565b6040516208aa8960eb1b602082015260230160405160208183030381529060405280519060200120876040516020016104f09190610a1c565b604051602081830303815290604052805190602001200361051e578260028151811061029657610296610a06565b6040516214d3d360ea1b602082015260230160405160208183030381529060405280519060200120876040516020016105579190610a1c565b604051602081830303815290604052805190602001200361058557826003815181106102fb576102fb610a06565b60405162461bcd60e51b8152602060048201526011602482015270496e76616c69642066656564206e616d6560781b604482015260640161034c565b600181815481106105d157600080fd5b60009182526020909120015460581b905081565b60008054604051634c37574560e01b8152606092839290916001600160a01b0390911690634c3757459061061e9060019060040161082a565b600060405180830381865afa15801561063b573d6000803e3d6000fd5b505050506040513d6000823e601f3d908101601f19168201604052610663919081019061093a565b925092509250909192565b60006020828403121561068057600080fd5b81356001600160581b03198116811461069857600080fd5b9392505050565b634e487b7160e01b600052604160045260246000fd5b604051601f8201601f1916810167ffffffffffffffff811182821017156106de576106de61069f565b604052919050565b600060208083850312156106f957600080fd5b823567ffffffffffffffff8082111561071157600080fd5b818501915085601f83011261072557600080fd5b8135818111156107375761073761069f565b610749601f8201601f191685016106b5565b9150808252868482850101111561075f57600080fd5b8084840185840137600090820190930192909252509392505050565b60006020828403121561078d57600080fd5b5035919050565b60608082528451908201819052600090602090608084019082880184805b838110156107ce578251855293850193918501916001016107b2565b5086840385880152885180855289860194860193509150805b82811015610805578451820b845293850193928501926001016107e7565b50505067ffffffffffffffff861660408601529250610822915050565b949350505050565b6020808252825482820181905260008481528281209092916040850190845b8181101561087257835460581b6001600160581b03191683526001938401939285019201610849565b50909695505050505050565b600067ffffffffffffffff8211156108985761089861069f565b5060051b60200190565b600082601f8301126108b357600080fd5b815160206108c86108c38361087e565b6106b5565b82815260059290921b840181019181810190868411156108e757600080fd5b8286015b84811015610912578051600081810b8214610904578081fd5b5083529183019183016108eb565b509695505050505050565b805167ffffffffffffffff8116811461093557600080fd5b919050565b60008060006060848603121561094f57600080fd5b835167ffffffffffffffff8082111561096757600080fd5b818601915086601f83011261097b57600080fd5b8151602061098b6108c38361087e565b82815260059290921b8401810191818101908a8411156109aa57600080fd5b948201945b838610156109c8578551825294820194908201906109af565b918901519197509093505050808211156109e157600080fd5b506109ee868287016108a2565b9250506109fd6040850161091d565b90509250925092565b634e487b7160e01b600052603260045260246000fd5b6000825160005b81811015610a3d5760208186018101518583015201610a23565b50600092019182525091905056fea26469706673582212201f2e5fe7bd4e84330f8c31bb8b815ab6ef156ed08e41c039465f6d04e441c5ff64736f6c63430008140033","linkReferences":{}},"methodIdentifiers":{"feedIds(uint256)":"b7f433d1","getFeedValueById(bytes21)":"4f1babd7","getFeedValueByName(string)":"50997491","getFtsoV2CurrentFeedValues()":"f601bc8b"},"id":84}