{"abi":[{"type":"constructor","inputs":[],"stateMutability":"nonpayable"},{"type":"function","name":"addWeather","inputs":[{"name":"jsonResponse","type":"tuple","internalType":"struct IJsonApi.Response","components":[{"name":"attestationType","type":"bytes32","internalType":"bytes32"},{"name":"sourceId","type":"bytes32","internalType":"bytes32"},{"name":"votingRound","type":"uint64","internalType":"uint64"},{"name":"lowestUsedTimestamp","type":"uint64","internalType":"uint64"},{"name":"requestBody","type":"tuple","internalType":"struct IJsonApi.RequestBody","components":[{"name":"url","type":"string","internalType":"string"},{"name":"postprocessJq","type":"string","internalType":"string"},{"name":"abi_signature","type":"string","internalType":"string"}]},{"name":"responseBody","type":"tuple","internalType":"struct IJsonApi.ResponseBody","components":[{"name":"abi_encoded_data","type":"bytes","internalType":"bytes"}]}]}],"outputs":[],"stateMutability":"nonpayable"},{"type":"function","name":"jsonApiAttestationVerification","inputs":[],"outputs":[{"name":"","type":"address","internalType":"contract IJsonApiVerification"}],"stateMutability":"view"},{"type":"function","name":"weathers","inputs":[{"name":"","type":"uint256","internalType":"uint256"}],"outputs":[{"name":"latitude","type":"int256","internalType":"int256"},{"name":"longitude","type":"int256","internalType":"int256"},{"name":"temperature","type":"int256","internalType":"int256"},{"name":"windSpeed","type":"int256","internalType":"int256"},{"name":"windDeg","type":"uint256","internalType":"uint256"},{"name":"timestamp","type":"uint256","internalType":"uint256"}],"stateMutability":"view"}],"bytecode":{"object":"0x608060405234801561001057600080fd5b5060405161001d9061005f565b604051809103906000f080158015610039573d6000803e3d6000fd5b50600180546001600160a01b0319166001600160a01b039290921691909117905561006c565b61012480610ca483390190565b610c298061007b6000396000f3fe608060405234801561001057600080fd5b50600436106100415760003560e01c806306cb86b5146100465780635773730e1461005b578063d891ad11146100a0575b600080fd5b610059610054366004610420565b6100cb565b005b61006e610069366004610461565b610315565b604080519687526020870195909552938501929092526060840152608083015260a082015260c0015b60405180910390f35b6001546100b3906001600160a01b031681565b6040516001600160a01b039091168152602001610097565b60408051600081830181815260608301909352918152602081016100ee846106c3565b905260015460405163d0f18f8560e01b81529192506001600160a01b03169063d0f18f85906101219084906004016107c8565b602060405180830381865afa15801561013e573d6000803e3d6000fd5b505050506040513d601f19601f8201168201806040525081019061016291906108da565b6101a25760405162461bcd60e51b815260206004820152600d60248201526c24b73b30b634b210383937b7b360991b604482015260640160405180910390fd5b60006101b160a08401846108fc565b6101bb908061091c565b8101906101c89190610a07565b60008054600181018255908052815160079091027f290decd9548b62a8d60345a988386fc84ba6bc95484008f6362f93160ef3e56381019182556020808401517f290decd9548b62a8d60345a988386fc84ba6bc95484008f6362f93160ef3e56483015560408401517f290decd9548b62a8d60345a988386fc84ba6bc95484008f6362f93160ef3e56583015560608401517f290decd9548b62a8d60345a988386fc84ba6bc95484008f6362f93160ef3e56683015560808401517f290decd9548b62a8d60345a988386fc84ba6bc95484008f6362f93160ef3e56783015560a08401517f290decd9548b62a8d60345a988386fc84ba6bc95484008f6362f93160ef3e56883015560c08401518051949550859461030d937f290decd9548b62a8d60345a988386fc84ba6bc95484008f6362f93160ef3e5690192919091019061035b565b505050505050565b6000818154811061032557600080fd5b60009182526020909120600790910201805460018201546002830154600384015460048501546005909501549395509193909286565b8280548282559060005260206000209081019282156103a1579160200282015b828111156103a157825182906103919082610b34565b509160200191906001019061037b565b506103ad9291506103b1565b5090565b808211156103ad5760006103c582826103ce565b506001016103b1565b5080546103da90610aaf565b6000825580601f106103ea575050565b601f016020900490600052602060002090810190610408919061040b565b50565b5b808211156103ad576000815560010161040c565b60006020828403121561043257600080fd5b81356001600160401b0381111561044857600080fd5b820160c0818503121561045a57600080fd5b9392505050565b60006020828403121561047357600080fd5b5035919050565b634e487b7160e01b600052604160045260246000fd5b60405160c081016001600160401b03811182821017156104b2576104b261047a565b60405290565b60405160e081016001600160401b03811182821017156104b2576104b261047a565b604051601f8201601f191681016001600160401b03811182821017156105025761050261047a565b604052919050565b80356001600160401b038116811461052157600080fd5b919050565b60006001600160401b0383111561053f5761053f61047a565b610552601f8401601f19166020016104da565b905082815283838301111561056657600080fd5b828260208301376000602084830101529392505050565b600082601f83011261058e57600080fd5b61045a83833560208501610526565b6000606082840312156105af57600080fd5b604051606081016001600160401b0382821081831117156105d2576105d261047a565b8160405282935084359150808211156105ea57600080fd5b6105f68683870161057d565b8352602085013591508082111561060c57600080fd5b6106188683870161057d565b6020840152604085013591508082111561063157600080fd5b5061063e8582860161057d565b6040830152505092915050565b60006020828403121561065d57600080fd5b604051602081016001600160401b0382821081831117156106805761068061047a565b81604052829350843591508082111561069857600080fd5b508301601f810185136106aa57600080fd5b6106b985823560208401610526565b8252505092915050565b600060c082360312156106d557600080fd5b6106dd610490565b82358152602083013560208201526106f76040840161050a565b60408201526107086060840161050a565b606082015260808301356001600160401b038082111561072757600080fd5b6107333683870161059d565b608084015260a085013591508082111561074c57600080fd5b506107593682860161064b565b60a08301525092915050565b6000815180845260005b8181101561078b5760208185018101518683018201520161076f565b506000602082860101526020601f19601f83011685010191505092915050565b60008151602084526107c06020850182610765565b949350505050565b6020808252825160408383015280516060840181905260009291820190839060808601905b8083101561080d57835182529284019260019290920191908401906107ed565b50838701519250601f19868203016040870152825181528383015184820152604083015191506001600160401b038083166040830152806060850151166060830152506080830151915060c060808201528151606060c0830152610875610120830182610765565b905084830151945060bf19808383030160e08401526108948287610765565b955060408401519350808387030161010084015250506108b48483610765565b935060a0830151925080840360a082015250506108d182826107ab565b95945050505050565b6000602082840312156108ec57600080fd5b8151801515811461045a57600080fd5b60008235601e1983360301811261091257600080fd5b9190910192915050565b6000808335601e1984360301811261093357600080fd5b8301803591506001600160401b0382111561094d57600080fd5b60200191503681900382131561096257600080fd5b9250929050565b600082601f83011261097a57600080fd5b813560206001600160401b03808311156109965761099661047a565b8260051b6109a58382016104da565b93845285810183019383810190888611156109bf57600080fd5b84880192505b858310156109fb578235848111156109dd5760008081fd5b6109eb8a87838c010161057d565b83525091840191908401906109c5565b98975050505050505050565b600060208284031215610a1957600080fd5b81356001600160401b0380821115610a3057600080fd5b9083019060e08286031215610a4457600080fd5b610a4c6104b8565b823581526020830135602082015260408301356040820152606083013560608201526080830135608082015260a083013560a082015260c083013582811115610a9457600080fd5b610aa087828601610969565b60c08301525095945050505050565b600181811c90821680610ac357607f821691505b602082108103610ae357634e487b7160e01b600052602260045260246000fd5b50919050565b601f821115610b2f57600081815260208120601f850160051c81016020861015610b105750805b601f850160051c820191505b8181101561030d57828155600101610b1c565b505050565b81516001600160401b03811115610b4d57610b4d61047a565b610b6181610b5b8454610aaf565b84610ae9565b602080601f831160018114610b965760008415610b7e5750858301515b600019600386901b1c1916600185901b17855561030d565b600085815260208120601f198616915b82811015610bc557888601518255948401946001909101908401610ba6565b5085821015610be35787850151600019600388901b60f8161c191681555b5050505050600190811b0190555056fea26469706673582212206dad91b806a09880bae83fbbbaaba3c5410cc87319ab77e0ca476e3e86013ed864736f6c63430008140033608060405234801561001057600080fd5b50610104806100206000396000f3fe6080604052348015600f57600080fd5b506004361060285760003560e01c8063d0f18f8514602d575b600080fd5b603c60383660046070565b6050565b604051901515815260200160405180910390f35b6000664a736f6e41706960c81b6068602084018460af565b351492915050565b600060208284031215608157600080fd5b813567ffffffffffffffff811115609757600080fd5b82016040818503121560a857600080fd5b9392505050565b6000823560be1983360301811260c457600080fd5b919091019291505056fea2646970667358221220f44a5221dda444e7ef1e8dfab8abc979d70fcdf31de50e27ccec7ab1fc28d84064736f6c63430008140033","linkReferences":{}},"methodIdentifiers":{"addWeather((bytes32,bytes32,uint64,uint64,(string,string,string),(bytes)))":"06cb86b5","jsonApiAttestationVerification()":"d891ad11","weathers(uint256)":"5773730e"},"id":90}